:020000041000EA
:1000000000B5324B212058609868022188439860DF
:10001000D860186158612E4B002199600221596106
:100020000121F02299502B49196001219960352056
:1000300000F044F80222904214D00621196600F024
:1000400034F8196E01211966002018661A6600F04E
:100050002CF8196E196E196E052000F02FF8012189
:100060000842F9D1002199601B49196000215960AB
:100070001A491B48016001219960EB211966A021F2
:10008000196600F012F800219960164914480160C1
:100090000121996001BC002800D000471248134993
:1000A000086003C880F30888084703B5996A0420EC
:1000B0000142FBD001200142F8D103BD02B5186610
:1000C0001866FFF7F2FF186E186E02BD00000240BE
:1000D000000000180000070000035F00212200005C
:1000E000F4000018222000A00001001008ED00E03C
:1000F00000000000000000000000000074B24E7A12
:1001000000200420F7010010C3010010C5010010F9
:10011000C1010010C1010010C1010010C101001097
:10012000C1010010C1010010C1010010C701001081
:10013000C1010010C1010010C9010010CB01001065
:10014000CD010010CD010010CD010010CD01001037
:10015000CD010010CD010010CD010010CD01001027
:10016000CD010010CD010010CD010010CD01001017
:10017000CD010010CD010010CD010010CD01001007
:10018000CD010010CD010010CD010010CD010010F7
:10019000CD010010CD010010CD010010CD010010E7
:1001A000CD010010CD010010CD010010CD010010D7
:1001B000CD010010CD010010CD010010CD010010C7
:1001C00000BE00BE00BE00BE00BE00BEEFF3058054
:1001D000103800BEF2EB8871044B0010204B001069
:1001E0003802001090A31AE71E481F49086006C88D
:1001F00081F3088810471D480068002801D019487D
:10020000F3E70DA40ECC002902D000F012F8F9E7B4
:100210001749184A002000E001C19142FCD116495B
:100220008847164988471649884700BEFDE701C937
:1002300001C29A42FBD37047204B0010C00000203F
:10024000E4320020447D001000000420000004205F
:10025000447D001000100420001004200000000065
:10026000704700000000000008ED00E0000000D032
:10027000E4320020F0380020413C00102D05001031
:10028000393C0010F8B5C0460448054B10B5834210
:1002900003D0044B002B00D0984710BDE43200205F
:1002A000E43200200000000006480749091A8B10BC
:1002B000C90FC91810B5491003D0044B002B00D04A
:1002C000984710BDE4320020E43200200000000016
:1002D00010B5074C2378002B09D1FFF7D5FF054B4C
:1002E000002B02D0044800E000BF0123237010BDA2
:1002F000683600200000000000480010054B10B5D3
:10030000002B03D00449054800E000BFFFF7CCFFF5
:1003100010BDC046000000006C36002000480010F0
:10032000F0B5002400260C4D0C4F85B0013422009E
:10033000390008CD01A803F04FFC6B466A461E70D9
:10034000631E53706846002201A903F031FE042C9D
:10035000ECD105B0F0BDC046883700200048001041
:1003600010B5284B1B78012B27D0022B14D0032B60
:1003700035D0042B20D1244B1C68244BD86802F0C4
:10038000B3F8234902F0A9F802F0D6F86040214AF8
:1003900003041B0C13600FE01F4B1C681B4B5868B9
:1003A00002F0A2F81A4902F098F802F0C5F860408D
:1003B0001A4B0004000C186010BD194B1C68134B3D
:1003C000186802F091F8124902F087F802F0B4F8C8
:1003D00003046340134A1B0C1B041360ECE70E4B31
:1003E0001C680A4B986802F07FF8094902F075F81A
:1003F00002F0A2F803046340084A1B0C1B041360BC
:10040000DAE7C046E80200204800054088370020AF
:1004100066D623444810054034000540341005409A
:10042000200005402010054070B50421132000F085
:1004300087F90421142000F083F90421152000F02D
:100440007FF90421162000F07BF92A4B2A4C1A6808
:100450000123190018009143284A294E11602949A7
:100460000A689043284A10601800096888431060A1
:10047000264A12689343264A1360264B20681D685B
:1004800002F032F8244902F028F802F055F800048E
:100490006840224B000C00041860606802F024F8E9
:1004A0001D4902F01AF802F047F835686840000468
:1004B0001B4D000C2860A06802F016F8164902F0E7
:1004C0000CF802F039F8366800047040000C0004A3
:1004D000144B2860E0681D6802F006F80E4901F030
:1004E000FCFF02F029F868400F4B0004000C186074
:1004F00070BDC04614000540883700201410054028
:100500003400054028000540281005403C00054007
:100510003C1005402000054066D6234420100540CD
:10052000341005404800054048100540F0B5DE464F
:1005300045464E465746E0B50A2085B003F062FFB7
:1005400004F0C4F8794A036890461360436801AC2C
:10055000536083689360C368D360FFF765FF03F05F
:100560000FFE03F0D3FCFFF7DBFE714D714B2A78D1
:10057000190002A8994603F02FFB002323702B7863
:100580000022013B200002A9637003F011FD2B78CB
:10059000012B01D9013B2B7049462A7802A803F0B0
:1005A0001BFB2B780122013B200002A9637003F0A2
:1005B000FFFC614B614E9B4605239A4603F07CFE8F
:1005C000C0B201282CD0022848D00328F6D13778B1
:1005D00049462A7802A8002F00D083E003F0FCFAF5
:1005E0002B780022013B200002A96370277003F0E2
:1005F000DFFC42462B785946013B9B00D25802A8AB
:1006000003F0EAFA53460122200002A9237003F006
:10061000CFFC0123337003F04FFEC0B20128D2D1CA
:100620003778002F28D042462B78013B9B00D258C8
:10063000002A02D04146013ACA50594602A803F0A6
:10064000CBFA534623702B780122013B200002A9EC
:10065000637003F0ADFCFFF783FEAFE73778002F40
:100660002BD042462B78013B9B00D258632AE4D81A
:1006700041460132CA50E0E749462A7802A803F011
:10068000ABFA2B780022013B200002A9277063708F
:1006900003F08EFC2A78012A02D9013AD2B22A70DC
:1006A000494602A803F098FA2B780122013B20006A
:1006B00002A9637003F07CFC80E749462A7802A80F
:1006C00003F08AFA2B780022013B200002A9277050
:1006D000637003F06DFC2A78032AE1D80132D2B2AC
:1006E0002A70DDE7002703F077FA2B780122013B1F
:1006F000200002A96370277003F05AFC42462B7851
:100700005946013B9B00D25802A803F065FA5346B4
:100710000022200002A9237003F04AFC4246032174
:10072000002003F0D7FF377048E7C0468837002025
:10073000E80200201048001018480010EF38002090
:10074000094A83009A1810B5146840225440803238
:100750002240064CC000A44663441A60044B9C46E9
:100760006044416010BDC04604C0014004D0014057
:1007700000400140074B8000C3181B68C90092006D
:100780000A435A400C231340034A944660440360D2
:100790007047C04604C0014004D001400123D0226C
:1007A0008340120693629361094A83009A18116884
:1007B0004022514080320A400649C0008C466344C2
:1007C0001A60054B9C460523604443607047C04651
:1007D00004C0014004D00140004001400FB400B506
:1007E000084883B003F074FB049B002B07D005A9D5
:1007F0001800019103F006FA034803F069FB012099
:1008000003F018FA204800103048001070B5EFF3DC
:10081000108C72B60D4D2B68002BFCD0BFF35F8F90
:100820000724CB08C618C05C01230C40A3401C0061
:100830000440034207D118433070BFF35F8F2C6030
:100840008CF3108870BD1000FFF7C8FF2C0100D09A
:10085000044A1078431CDBB2172B00D91023137005
:100860007047C046E90200200021044B044ABFF350
:100870005F8F02C39342FAD17047C046000100D097
:10088000800100D0054B064A1360064A136053608E
:100890009360D3601361536193617047808080805F
:1008A00000E400E004E400E01F2318401E3B834006
:1008B000002905D0C021044A4900535013607047F5
:1008C000802201498B50FAE700E100E070B50D008D
:1008D000EFF3108672B60F4A1368002BFCD0BFF3FB
:1008E0005F8F0D4B10309B6884001B590B4A93425D
:1008F00003D09D4201D000F097FE074B9B681D512D
:10090000BFF35F8FBFF35F8F0022024B1A6086F345
:10091000108870BD240100D000ED00E0CD01001072
:10092000024B9C46614489000160704740000034DE
:10093000F8B5134D134E2C00FF27B5421ED2236885
:10094000002B0FD0FFF784FF01002800FFF7E8FF1E
:10095000A780BFF35F8F0834B4420FD2236825000D
:10096000002BEFD1FFF774FF01002800FFF7D8FF3D
:100970002771BFF35F8F0834B442EFD3F8BDC04690
:10098000DC320020E43200200A4B1968EFF31080BB
:1009900072B60A68002AFCD0BFF35F8F1B68BFF3F2
:1009A0005F8F00221A6080F3108840BF0020002172
:1009B0007047C046E4380020F0B5DE4657464E4644
:1009C0004546E0B585B0EFF3058203231340B84AEE
:1009D0009900575801229A40B64B88461A60B64B88
:1009E000934602932AE0BB881BB2002B00DBA2E0F7
:1009F000BB79002B00D0E3E00823F85E002800DA82
:100A000013E143007A691B18DB00D3189D68DC688A
:100A10006B1C00D100E1A94B190041449A6A0B6993
:100A2000A81A9B1A984200D20D61A44800F04AFB14
:100A30008C4200DDF9E08C4200D130E15B469F48FA
:100A400043630823FE5E002ECDDB7A697300914676
:100A50009B19DB0099444B469C68DD6800F032FB33
:100A60008D42C0DC00D108E1002D00DAEDE04B46FC
:100A7000029A1B69934200D1DFE04A4652884946F8
:100A800094460822B85E62460004496910439847BC
:100A9000009001910099019A0B001000134300D1BE
:100AA000D3E013000A00002800DBEAE02000290060
:100AB000801A99414B469860D96000229A5E002ABC
:100AC00091DB53009C187D69E4002C190093A36806
:100AD000E4689A468C4286DC02D1834200D982E7E0
:100AE00008239C46BC443A8103976746009BB44662
:100AF0003E000EE08C4200D1D5E01E000023F25EE5
:100B0000002A0BDB53009C18E4002C19A768E4684A
:100B1000BA469B18DB00EB188C42EBDD33006646CF
:100B20009C464B461A806346039F1E80BB881BB2BF
:100B3000002B00DA5CE73A69EFF3108172B61368B4
:100B4000002BFCD0BFF35F8F0123BE885B42BB80CC
:100B500036B23B69BFF35F8F00221A6081F31088C1
:100B6000002E00DA44E73B0008333A0099467D69DD
:100B700073009B19DB00EB189968DC688C46082031
:100B8000115E4846002910DB009306E0A3423FD0E7
:100B90000023F95E3800002906DB4F007F18FF00B4
:100BA000EF19FB68A342F1DD009B068000201E5E6A
:100BB0001980002EDCDA1700BB79002B00D11BE76F
:100BC0000023BB713D000823F95E08354B1C2CD077
:100BD0007C690800A44603E035004B1C00D10DE7FA
:100BE0004B005B180A006146DB00CE18C95E7388B3
:100BF0001BB2002BF0DA01235B42DC17B360F46018
:100C00008242EAD029803B89100033803A81E4E7B0
:100C1000BB686345BCD9C7E7631C00D0FBE6274827
:100C200000F050FA8C4200DC05E740BF05B0F0BC94
:100C3000BB46B246A946A046F0BD4B465B699A4604
:100C40001B6950469847002823D14B461B883A69B8
:100C50003B81EFF3108372B611680029FCD0BFF31B
:100C60005F8F49467A880A803A697E80BFF35F8F3A
:100C70000021116083F31088B5E6844200D8F3E6C2
:100C8000B1E60E4800F01EFA009B019CC0186141BD
:100C900010E753461A685B6800920193FAE68542B2
:100CA00000D8CBE6C1E7824500D826E736E7C04644
:100CB000D03800203C700540B909001000400540C4
:100CC00070B52E4C2569002D04D00A212C48FFF761
:100CD00027FE70BD2B4E0321300000F0E9F9E660DD
:100CE000FFF7B6FD284B03229C46D02322701B063B
:100CF0001B6801216370254B6044A3600F238000B3
:100D000020610220638063694942A1801980023119
:100D1000198647311D83585218315A5275325C3941
:100D200099521832013199521832013199521832C0
:100D300001319952083518329D52023118329952B8
:100D40001832013199521832013199521832013159
:100D500099521832013199521832013199520C4B83
:100D60000C49DC6001303562FFF7B0FD0121032042
:100D7000FFF79AFD084B1D60A7E7C046EC02002074
:100D8000E43800200040054040000034FFFF100020
:100D9000D0380020B90900103860054070B5010056
:100DA0000469EFF3108C72B620680028FCD0BFF302
:100DB0005F8F02200D5E4C6968004019C000241846
:100DC000002D37DB208848800869BFF35F8F00263D
:100DD00006608CF31088E360638804980133206117
:100DE0005B0405985B0CA26060611A1C002B1FD08D
:100DF00093B22804628018430A69EFF3108C72B62C
:100E00001368002BFCD0BFF35F8F8B8823808D800D
:100E10000B69BFF35F8F00221A608CF310880B7888
:100E200001329A40CB6808498C4663441A6070BD11
:100E30000122DDE70B69BFF35F8F00221A608CF39C
:100E4000108801204042F2E73C20000010B54389A1
:100E50000A1493421ADD53009B184269DB00D31831
:100E60000469EFF3108C72B62268002AFCD0BFF33D
:100E70005F8F5A88090494B2090C8A4208D003692A
:100E8000BFF35F8F00221A608CF31088002010BD22
:100E90008022120214435C80012302698371BFF334
:100EA0005F8F002111608CF31088044902788C4612
:100EB0009340C268012062441360E8E73C200000D0
:100EC000F0B504000D0006267642F717C64636191F
:100ED0006F4100B582B08F4214D811D000F0FAF8FB
:100EE00032003B00121A8B41002B17DC002B47D03D
:100EF0002000290000F0F8F802B080BCB846F0BD30
:100F00008642EBD90022002316001F0000F0E2F811
:100F100032003B00121A8B41002BE7DD00F0DAF8BB
:100F200032003B00121A8B41002B0ADB0023019395
:100F3000154B3200009315483B00FFF72FFF0028A8
:100F4000D6DB00239C46B046114A124E736A9F427C
:100F500004D8B16A4145CBD29F42C9D11168EFF3A1
:100F6000108072B60B68002BFCD0BFF35F8F136844
:100F7000BFF35F8F6146196080F3108820BFE5E7FB
:100F8000002AB5D0CAE7C04689090010EC0200204B
:100F9000E43800200040054070B5060000F09AF8E3
:100FA000FA2204000D00002330000021920001F01D
:100FB0005DFA8023001969411B06994202D3012082
:100FC00002494042FFF77CFF70BDC046FFFFFF7F34
:100FD000F0B5CE46474680B504000D0083B0EFF370
:100FE0000587002F3BD12F4E81463378F1680433BB
:100FF0009B008A6A5B58811A9B1A99420ED320BFC4
:10100000294A0020536AAB4203D3926A01309145CA
:101010003CD803B0C0BCB946B046F0BD00F05AF8A9
:1010200022002B00121A8B41002B26DB1F4B2200C3
:10103000009330002B000197FFF7B0FE011E1CDD6E
:10104000194BA8465A6A954225D920BF3000FFF7B0
:10105000FDFE154A0020536A9845DAD8D5E7124AB2
:101060000020536A8B42D4D3926A0130A242D0D27C
:101070005B1A5A1E9341D8B2CBE70B4A0020536A41
:10108000AB42C6D3926A01209145C2D9EB1A5A1ECF
:101090009341D8B2BDE79B6A9C42D7D99542D5D13E
:1010A000D3E7C046EC02002000400540890900104B
:1010B00010B5024A0248FFF7A9FB10BD34480010E2
:1010C000983800200300416A0A00986A596A8A42E7
:1010D000FAD17047034B596A0A00986A596A9142DB
:1010E000FAD1704700400540064A536A9942FCD83D
:1010F00007D1044B02E05A6A914202D19A6A8242B5
:10110000F9D3704700400540F0B557464E46DE46DD
:1011100045468446E0B583B01F000CAB18786346A3
:10112000914600221B680190DA6601325960DA6646
:10113000002F4FDD7A1E90466246127901269202F8
:10114000802493463A0046407602802537000020EE
:1011500046461021A2469046AD00341A62425441E0
:101160004A4664423C4000945C46125C2243009C28
:1011700022431A615A6B1142FCD052469C58002CF3
:1011800010D1864221D00022013093468045E4D11F
:101190006346019A1A7103B0F0BCBB46B246A94639
:1011A000A046F0BD5A6D012293465A6B2A42FCD0EC
:1011B0001A6E5A46002AE6D0002C03D0E30701D469
:1011C0002407E5D401204042E2E7019A002ADAD15F
:1011D0009346EAE70020DBE7F8B5DE4657464E4681
:1011E00045468346E0B505200C0000F077F906007F
:1011F00060082100801900F01DFB430098468044E0
:1012000007000521404600F015FB3B1A9A461E4B8D
:101210008146700080199C4231D81C4900F00AFBBD
:10122000451C5B461C680023E366226804335A4071
:101230000233134080225201A21813605346E36127
:101240004B462362434601204F2B03D95021404691
:1012500000F0F0FAA023E050E36F39005D400C4B42
:101260002D042D0CE3181D6001233000E36600F00F
:10127000E1FAF0BCBB46B246A946A046F8BD054916
:1012800000F0D8FA451CCCE73F420F00809698004A
:101290007C10000040787D01104A70B5821A5342DC
:1012A0005A41072352429A430D4B10321A600D4B9C
:1012B0000D4C1A60150023689D432B1EFAD166243D
:1012C0000268FF340571D5661460633C8833FF3CC7
:1012D000D5639563D450FFF77FFF70BD04030020F2
:1012E00000E0004000F0004008C0004010B582B0AF
:1012F00004AC24780094FFF707FF02B010BDC0468D
:10130000F8B5DE464E4657464546E0B58B460500E5
:101310000A991800160000F08DFA0A9B6C001F0253
:10132000324B64199C46A4006444636881469F4222
:1013300000D967602B1FDBB29846012B30D9C02340
:1013400080229B01E31812011A60294BAD00595904
:101350009A4600291BD17301E026226853401E40A3
:10136000802342465B01E3181E60012A30D98023A6
:1013700080229B01E31812011A6053464A466760B7
:101380005A51F0BCBB46B246A946A046F8BD5869C2
:1013900000F050FA013043001B18033BFDD2DAE79E
:1013A0005B46012BCBD1C02303229B01E3181A60BB
:1013B000023AA3681A42FCD07301E0262268AD000D
:1013C00053401E4080230A4A5B019246E3181E6088
:1013D0005A462168514003220A401A6001225B46A6
:1013E0009A40A3681A42FCD0C1E7C0460080004082
:1013F0009C380020F0B546464F46D646C0B51F0083
:10140000344B44009C462418A40064446368884616
:101410001600FF2B02D880235B006360031FDBB242
:101420009A46012B30D9C02380229B01E318120178
:101430001A60294B85005959994600291BD173011F
:10144000E026226853401E40802352465B01E31889
:101450001E60012A30D9802380229B01E3181201EB
:101460001A6080235B0063604B465F51E0BCBA4664
:10147000B146A846F0BD586900F0DCF901304300E0
:101480001B18033BFDD2DAE74346012BCBD1C02327
:1014900003229B01E3181A60023AA3681A42FCD0A7
:1014A0007301E0262268850053401E4080230A4ACB
:1014B0005B019146E3181E604246216851400322B9
:1014C0000A401A60012342469340A2681342FCD0AE
:1014D000C1E7C046008000409C380020014B8000DE
:1014E000C05870479C380020F8B5040020481D0003
:1014F00017000E0000F09EF90100380000F09AF984
:10150000069B29041B0319432368002B1EDB194B80
:10151000194DE21853425A4180235B019C46120345
:10152000164B62441A60164B1A6017002B689F43D3
:10153000FBD1144B2660E2182123A06013602368BE
:10154000002BFCDA0823E1601360F8BD3F2322681A
:101550001340B342DBD1A3681B051B0D8342D6D1D8
:10156000EE22E368D20213408B42D0D1EDE7C046B1
:10157000001BB7000040FDBF08C0004000E0004075
:1015800000F00040043000008023024A9B000B431F
:10159000D362704700800540142310B501001888FD
:1015A00004331B88984710BD162310B50100188816
:1015B00002331B88984710BDF8B54746CE4680B524
:1015C0000F1E19D014239946043304000025012668
:1015D00098464B461888434621681B88984701C4A3
:1015E000431E9841013540420640AF42F1D13000E0
:1015F000C0BCB946B046F8BD0126F8E7AA23064AA2
:101600001B0113602F230549D360054B19605368F4
:10161000002BFCDA7047C0460040024000B0FA00E0
:10162000006002407047C04610B50148FFF7D6F889
:101630005848001070B5074D074EB54209D2002436
:10164000013E761BB60808CD984723000134B3420B
:10165000F9D170BDC0470010FC470010054B064A89
:1016600006491A60064A074B1A6010000B68984337
:10167000FBD1704700E00040BFCDFBFE08C000403A
:10168000FE7F3C0000F00040044BDB6C002B03D1DC
:101690008022034BD2021A607047C04600001150EE
:1016A0004C201150044A054B1A60054A1368DB01AF
:1016B0008033FBD17047C046FFFFFF0100F00040C0
:1016C00008C000404022034B9A675A671A67DA66DF
:1016D0007047C04600F0014010B5FFF7C5F810BDD7
:1016E00070B5044D044CA968C022200000F080FFB2
:1016F000AC6070BD00ED00E000000020002310B5DC
:10170000294C82B0A367FFF779FF0122274B1A60AB
:10171000636C012BFCD10322254B1A60224A936B88
:10172000012BFCD1013300930121224A22480433CA
:10173000FFF7DAFE052301210093204A2048FFF736
:10174000D3FE0022022104201E4BFFF753FE00228D
:10175000012105201C4BFFF74DFE00220021072030
:101760001A4BFFF747FE002200210820174BFFF716
:1017700041FE8023DB000093002200210920134B4F
:10178000FFF7BEFD0022104B00210620FFF732FEBE
:101790000420FFF7A3FE0E4900F04CF801000020E2
:1017A000FFF7F2FE02B010BD008000403CB00040E8
:1017B00030B00040002F685900800240008C8647FE
:1017C00000C00240001BB70040597307006CDC02E8
:1017D00040420F0001480421014B1847100300202C
:1017E000B9150010124A936F9B0815D29066D16606
:1017F000002905D0FFE7FFE7FFE7516F106F704743
:1018000004B580210906C2175140002800D0C84302
:1018100002F0BEFF002104BDF0B5146E556E576F87
:10182000166FFFF7E3FF1466556657671667F0BD3E
:10183000000000D0114A936F9B0813D210665166C6
:10184000002905D0FFE7FFE7FFE7516F106F7047F2
:1018500004B5002801D00020C04302F099FF002108
:1018600004BDC046F0B5146E556E576F166FFFF786
:10187000E5FF1466556657671667F0BD000000D097
:1018800094464A4A926F9208624601D228E0C046C6
:10189000F0B5464E346E756E776F366F00F020F8F7
:1018A0009446424A14665566576716676246F0BD0D
:1018B00094463E4A926F9208624601D254E0C04676
:1018C000F0B53A4E346E756E776F366F00F04CF8A7
:1018D0009446364A14665566576716676246F0BDE9
:1018E000002B24DB11D000293EDA00B5C943404269
:1018F00000D1013100F038F8C943404200D1013134
:10190000DB43524200D1013300BD002AEBD1002855
:1019100001D1002905D00020C90FC90701D1C0435A
:10192000410800B502F024FF0022002300BD00B5ED
:1019300000290ADBDB43524200D1013300F014F8E6
:10194000C943404200D1013100BDC943404200D1EA
:101950000131DB43524200D1013300F005F8DB4393
:10196000524200D1013300BD002923D1002B18D1F0
:10197000002A0CD0BC460D4F38667A660021002341
:10198000FFE7FFE7FFE77A6F386F67467047002889
:1019900001D00748010000B502F0EAFE0022002352
:1019A00000BD02000B00002000217047000000D0A5
:1019B000FFFFFFFF002B00D0BFE0130C28D1002A4F
:1019C000E7D080B4114F39667A66FFE7FFE730B49D
:1019D000040C7B6F396F1B0423433B667A66FFE779
:1019E000FFE7FFE7C04684B27B6F3D6F1B042343D4
:1019F0003B667A66FFE7FFE7C04600232C042D0C08
:101A00007A6F386F00196941B0BC7047000000D090
:101A1000F0B594460025140E01D112020835140FBA
:101A200001D112010435940F01D192000235D40F77
:101A300001D152000135D40B0134254F7C66254C71
:101A40003C660E0C93B2FFE7FFE7FFE73C6F66438F
:101A5000360C7703BE467343DF0B5B04C01AB941F3
:101A6000130C7343DB18C91ACE086643360CB64410
:101A700093B273431F0F1B01C01AB941130C734378
:101A80001F0B1B05C01AB941860D8F023E436643EA
:101A9000360C092D24DB520A7243801A7703460A5A
:101AA0006643360C16235B1BDE40DF40BF196446DD
:101AB0006643821B7046043506330100D940A840B6
:101AC000C01900D30131A24206D20023F0BD0000AC
:101AD000000000D0FFFFFFFF121B0130F3D3F1E73E
:101AE00009277F1BFE406446A2B27243801A00D2CF
:101AF0000139220C7243130C1204821A99410B0013
:101B00007046043513370100F940A840801900D30E
:101B10000131002B02D1A2420AD2F0BD013000D324
:101B20000131121BFAD2013BF8D1A24200D2F0BD22
:101B3000013000D30131121BF7E7F0B51C0C00D0C7
:101B400080E00CB400251C0A04D11B02160E33439E
:101B5000120208351C0B04D11B01160F334312016E
:101B600004359C0B04D19B00960F33439200023541
:101B7000DC0B02D192185B4101351C0097186441BF
:101B80000134464F7C66464C3C660E0CFFE7FFE78F
:101B9000FFE7C0463C6F6643360C7703BE4697B2FC
:101BA0007743C01B00D20139C01B00D201399FB25C
:101BB0007743C91BC91B170C77437E04FF0B801B9F
:101BC000B941CE086643360C0C2D33DBB644120BFC
:101BD0001F053A431B0B97B27743C01B00D2013954
:101BE0009FB27743C91B170C77433E043F0C801B01
:101BF000B941860D8F023E43664329277F1BFE4075
:101C00000C3D7746AF40BF1930BCA2B2ABB27243B5
:101C10007343801A9941220C7243130C1204801AE8
:101C2000994102000B000137001BA941F9D2781E2F
:101C30000021F0BD0C277F1BFE4077467F0BAF4095
:101C4000FF19E0E700245D1C07D0144F7D6639665C
:101C5000FFE7FFE7FFE7FFE73C6F95B29EB2654302
:101C60006643401BB141150C1E0C654366433604A8
:101C70002F0C3E432D04401BB141994204D2020077
:101C80000B0020000021F0BD01D19042F7D3801A53
:101C9000994101349942F2D3F6E70000000000D0E8
:101CA000FFFFFFFF48404140484018B41B4B5B68B2
:101CB000FC46019308BD04DF3F1F001018B4174B0A
:101CC0001B68FC46019308BD00DF491F00109446C5
:101CD000134A926F920809D2624618B40F4BDB6820
:101CE000FC46019308BD0CDF012200100C4AF0B540
:101CF000146E556E576F166F6246FFF7EEFF084A77
:101D00001466556657671667F0BD18B4034B9B6899
:101D1000FC46019308BD08DFA520001068340020B0
:101D2000000000D0FFB550404240504059404B4069
:101D3000594000E0FFB5154F4C00640D03D0BC4284
:101D400004D10C0314D80020090D09055C00640DB2
:101D500003D0BC4204D11C030AD800221B0D1B0572
:101D600001264B4009D44B4003D58B4200D182421F
:101D7000FFBD9942FCD19042FFBD0B43DB180343EA
:101D80001343F5D0C9434918FFBD0000FF07000009
:101D900000B5FFF7CFFF804100BDC04600B5FFF79B
:101DA000C1FF01D9002000BD012000BD00B5FFF733
:101DB000B9FF804100BD012040054A00121804D837
:101DC0005A00121801D80020704701207047000007
:101DD0000021002805D17047C1174840401AFAD0A9
:101DE000C90713B5064B1B6898470CBC441CA2409E
:101DF0001005120B0349091B09051943114310BDB6
:101E0000E03800201F04000010B54C00620D802354
:101E1000D218DB00D21A5B057E2A10DD9E3A13DA57
:101E2000CC170903490819435242D14064000134D8
:101E30001532202A05DAD0400843604310BD002047
:101E400010BD0846604310BDC80FC018013810BD52
:101E500018B4044B5B6AFC46019308BD24DFB12330
:101E60000010000068340020132370B51D78012D88
:101E700019D014DD1F48FFF797FB06001E48FFF737
:101E800093FB1E4C80223100200000F0B1FB022D9C
:101E90002DD01B48FFF780FB1A4B186070BD1A4B02
:101EA000164CA364F5E7184B144C23606360A360E1
:101EB000E36023616361A361E36123626362A36200
:101EC000E36223636363A363E36323646364A364E0
:101ED000E36423656365A365E36523666366A366C0
:101EE000E36623676367A367E367A364D1E7064BF1
:101EF000A364CEE75344000053460000683400203A
:101F00004C330000E03800200D1F001007B560467C
:101F100001880A0A0230DF2AFAD1C9B2820804D342
:101F2000028840880004104300E00068014A5050D5
:101F3000039007BD683400200FB403BC0CBCF0B59F
:101F40000124E407634000E0F0B50C0DCF0F661EDE
:101F50003605891B640503D3C943404200D30131D0
:101F6000640D03D0661CF60A07D0E41B00207F0036
:101F7000791C89078912803C24031D0DDF0F6E1E1A
:101F800036059B1B6D0503D3DB43524200D301335F
:101F90006D0D03D06E1CF60A07D0ED1B00227F00EA
:101FA0007B1C9B079B12803D2D032F1B661B58D467
:101FB000A446202E46DA20371400BC401D00BD4048
:101FC000F24033412A4380185941CB0F05D0C94311
:101FD000C043002264425041514162464D0D28D118
:101FE0000D0D07D100281FD0241940414941013A65
:101FF0000D0DF9D0640006D3013000D30131002C5F
:1020000001D140084000013A0BD4941CE40A04D1E9
:1020100012051144DB071944F0BDD907204B1943C1
:1020200000E0D9070020F0BD0029DDD1002CDBD174
:10203000F0BD0132C6074008CD0728434908002EED
:10204000E1D0D9E73C2E29DA203E40371400BC40CD
:1020500000D00124F24014431A00BB401C43D317A4
:10206000ACE7AC46202F08DA20360400B4400D005F
:10207000B540F84039412843A5E73C2F0CDA203F12
:1020800040360400B44000D00124F8400443080066
:10209000B1400C43C117EAE710001900002494E78F
:1020A0000000F07FF0B50C0D661E3605891BE60AB0
:1020B0006405640D02D0651CED0A04D000200121E6
:1020C0000905803C2403A4461C0D671E3F05DB1B4D
:1020D000E70A6405640D02D0651CED0A04D00022F5
:1020E00001231B05803C24037740644497B484B2E9
:1020F00096B27443070C7E43150C6F4380B268435D
:10210000361802D3012000043F183004350C0019A2
:102110007D41844688B29AB250430C0C62431F0C36
:102120007C438EB27E43921902D301263604A41951
:102130001604170C3618674101BC81B29AB251439C
:10214000040C62431B0C5C4380B25843121802D348
:102150000120000424181004130C401863412D18AA
:102160005E410020474106BC88B293B258430C0C34
:102170006343120C544389B251435B1802D30121CB
:102180000904641819041A0C091862416D185641A3
:102190000020474118BCF902720D1143F0026A0D8C
:1021A0001043ED020A0D03D16D1940414941013B35
:1021B000124E9B1B7600B3420ED26D0007D3013046
:1021C000002671416646354301D1400840001B0599
:1021D000C918E4072144F0BD0BDA013306D1013000
:1021E00004D101314F0D01D04908F2E7E107002089
:1021F000F0BD013631050020EBE70000FF030000D1
:10220000F0B51C0D671E3F05DB1BE70A6405640D76
:1022100002D0661CF60A04D0002201231B05803C74
:102220002403D0252D060026F6432E661E096E6671
:10223000CE0FF619B44649004F0D02D07E1CF60AA7
:1022400003D000200021403F3F033E1BB600B444B2
:10225000013F7F05C91B49082E6F013676089C0295
:10226000950D25437543ED137543AD1301356D1081
:10227000F603761B0CB4CC02450D2C43A2B2B3B2CC
:102280005A43270C7B43350C6F43A4B26C431B1994
:1022900002D3012424043F191C041D0CA4187D4101
:1022A00024196D41009A91B2ACB26143170C7C4382
:1022B0002B0C5F4392B25A43A41802D3012212049A
:1022C000BF182204230C52187B41019C6C431B193C
:1022D000520ED9010A434401A01A81B2B2B251434D
:1022E00003145A43360C734387B27743D617D21977
:1022F00000277E4136049B191704160C7F185E4197
:102300007316ED18F301002680337541A90F06D12D
:102310006400690AE8055B0A184309D22FE0042229
:10232000944480337541A90AA8059B0A184326D313
:10233000404149412404009A019B0D005543641B10
:102340004343E41A95B286B27543170C7E43030CDF
:102350005F4392B25A43B61802D301221204BF1847
:102360003204330C52197B4152429C41002C02D45E
:102370000022013051414008CA071043490802B009
:102380006246D7079210084BD218084B9A4203D2E4
:1023900012058918C919F0BD0020002A01DC390096
:1023A000F0BD01331905F5E7FD030000FE0700004D
:1023B000002200B5203200F004F8080000BD000043
:1023C00000220B150AD410B5944600F031F814140D
:1023D000013400DA0021CB17144C204700200021E3
:1023E00070476244343A0CD40C2A07DA0400914056
:1023F000904052422032D440214310BDD843D943AB
:1024000010BD203207D40C46944052422032114174
:10241000D040204310BD0800C917203203D45242D7
:102420002032104110BD1800190010BDE323001028
:102430000A0DCC0F531E1B05C91A520503D3C943FD
:10244000404200D30131520D03D0531CDB0A07D0A8
:10245000121B00206400611C89078912803A120354
:10246000014BD21A70470000FF0300005143434361
:10247000C9188C46110C83B24B4310B4040C614351
:1024800092B280B2504362431C041B0C001910BC72
:1024900059411304120CC0185141614470470000A7
:1024A0004840414048400E4B5B6818470C4B1B6846
:1024B00018470C4A936F9B0802D2094BDB681847F8
:1024C000F0B5146E556E576F166FFFF7F6FF054A9D
:1024D0001466556657671667F0BD014B9B68184731
:1024E00068350020000000D0491A002808D10846AD
:1024F00070470000C10FC90700D54042002817D01F
:10250000F44603B40B4B1B68984706BC81409E38C9
:102510004042803107D20B0607D04900490AC00566
:102520001043084360470130F8E7490A8902F5E79C
:1025300070470000E0380020014B5B6A184700003C
:1025400068350020132310B512481C78FFF72CF8CB
:102550000100012C0AD003DD80220F4800F048F86A
:102560000E48FFF719F80E4B186010BD0A4C5422A4
:10257000200000F03DF80B4B6365A365E36523661F
:102580006366A366E36623676367A367E367236203
:10259000E361E5E753460000683500204C33000056
:1025A000E0380020A925001007B5604601880A0A16
:1025B0000230DF2AFAD1C9B2820804D302884088E7
:1025C0000004104300E00068014A5050039007BD2A
:1025D0006835002001480421014B184720030020E2
:1025E000B9150010014B1B6818470000200300209C
:1025F000014B5B6818470000200300209A4200D27C
:10260000885470477047C046F8B557464546DE4681
:102610004E46E0B598460A9B06009A460D9B0F0071
:10262000934615009B0710D10B9B0C9A93420CD23A
:1026300013005C460B9A9D1A5D4422004346013408
:1026400039002020B047A542F7D10B9C6319002C1C
:1026500009D01D0053462A1B013C185D3900434632
:10266000B047002CF6D10D9B9B070ED55B46EC1AAC
:102670000C9BA34209D999462A00434639002020E1
:102680000134B0470135A145F6D82800F0BCBB465F
:10269000B246A946A046F8BDF0B54F464646D646D6
:1026A000C0B584B098460EAB1B7894469946129BF1
:1026B0000D9C109F119E9A0724D4002E6AD1BC4213
:1026C00020D201221A409246202C00D1CBE00C9A55
:1026D000551E302201E0202C30D001342A55A7426B
:1026E000F9D85246002A0DD0B4420BD20C9A551E8E
:1026F0003022202C02D126E0202C61D001342A5532
:10270000B442F9D1DA0634D55A0562D4002C5CD132
:102710000F9A102A00D191E0022A00D1A1E03022C4
:102720000C9C227001244A46002A5CD15A0700D42E
:102730007DE02B220C9D2A5501341CE05246002AD4
:1027400002D0202E3CD92024DA0614D55A0512D402
:10275000202F00D197E0202E3BD120261F223400CD
:102760000F9D102D00D181E0022D4CD030250C9F03
:10277000BD54202CD7D103930C9B62460093029644
:1027800043460194FFF740FF04B0E0BCBA46B146AF
:10279000A846F0BD012215001D40AA461A4227D0C6
:1027A0004A46002A33D10C321A4230D1BC429BD265
:1027B000202C00D08BE7202EC5D8DA06A4D4DAE787
:1027C0002024DA06D7D55A0503D4A74221D0B44233
:1027D0001FD00F9A102A21D0022A10D0202CCAD044
:1027E00022000134C2E72D220C9D2A550134C2E794
:1027F000BC4200D386E7202C00D068E7E1E7202C1C
:10280000B9D02200013462250C9FBD54E6E7013E99
:10281000CCE7621E012C00D17AE7A1E79A0616D414
:10282000202CA8D078220C9D2A550134D6E71A070F
:10283000A1D520220C9D2A5501349CE79A060ED47E
:1028400078220C9C22703022627002246BE7202CCC
:1028500091D058250C9A121915700134BEE75822F0
:10286000EFE76222EDE7002AA7D1AAE7023C9D0626
:1028700004D478250C9F3D551400B1E758250C9FD2
:102880003D551400ACE71F226AE7C04610B500288A
:1028900000D110BD01F0D0FAFBE7C046F0B55746B5
:1028A0004E464546DE46E0B599B08246894690469A
:1028B0000993229A239B10001900FFF77CFA002845
:1028C00000D0C8E0229823990122D54B5242FFF74D
:1028D0006DFA002800D0BEE0229823990122D14B46
:1028E0005242FFF755FA002800D0B4E0229823990D
:1028F00000220023FFF74CFA002800D0E9E1229ED5
:10290000239F8023269ADB001A400D92269A1A42B2
:1029100001D1062324933B00334300D0B4E0269B2F
:102920001B0500D5BFE1002300240A930B9400236C
:1029300004250C93259B0024AB4200D95C1B022389
:10294000269A1A400D92269A134203D06B426B418D
:102950005B421C400C9B002B07D00A9A0B9B30005B
:102960003900FFF7B4F906000F00229823990022DE
:102970000023FFF70DFA002803D0802109067B18F9
:102980001F00269AA84B009601971340099E0493B6
:10299000249B03940293424633004946504600F07C
:1029A000A7F90400002D67D02020269A494602404E
:1029B00013005A4253415B42621C18400A92330092
:1029C00022004530D0470C9A6F1ED317D4185C40B4
:1029D000D30F9B46002501E0202D13D008AA944672
:1029E0001F23200063440A2101355E19FEF722FFF0
:1029F0003031317020000A21FEF71CFF2600040050
:102A0000092EE9D805230693002304930A33039380
:102A10005B46099E029310AB0A9A00934946330025
:102A2000504605970195FFF737FE0D9A0400002ADE
:102A300022D04246851A259AAA421DD9B046574649
:102A4000160022004346494620200135B84701348C
:102A5000AE42F6D810E0269B42460493259B494699
:102A60000393249B50460293229B239C0093019442
:102A7000099B00F03DF90400200019B0F0BCBB46F2
:102A8000B246A946A046F0BD684B78009C46400D72
:102A90006044FFF7A1F9664A664BFFF736F9664ACC
:102AA000664BFFF70BF9664A3B031B0B1A43040006
:102AB0000D00644B110030000022FFF7F6F8624A67
:102AC000624BFFF722F902000B0020002900FFF7FC
:102AD000F5F8FFF799F90C90FFF77EF95C4A5D4B2A
:102AE00004000D00FFF711F900225B4BFFF7E6F839
:102AF000FFF78AF9594A8346594B20002900FFF70E
:102B000004F9040058460D00FFF766F9554A564B84
:102B1000FFF7FBF802000B0020002900FFF7C5F8C3
:102B200002000B000A900B91FFF7EFF804000D0074
:102B30000A980B9902000B00FFF7C0F800220E90D4
:102B40000F914A4B20002900FFF7C1F80022484BA3
:102B5000FFF7B4F802000B0020002900FFF7B7F8D8
:102B60000022444BFFF7AAF802000B0020002900C6
:102B7000FFF7ADF80A9A0B9B0D0080210400C905F0
:102B80000020FFF792F802000B0020002900FFF759
:102B900095F8394C02000B000E980F99FFF797F843
:102BA0005C440022264BFFF789F823050022FFF73B
:102BB000ACF804000D0002000B00300039000A944C
:102BC0000B95FFF7E5F800285ED123002A00C62503
:102BD0000C9963318D42AD4126996D42043509054A
:102BE00000D4A7E6134364D030003900234A244BB5
:102BF000FFF7D4F8002807D0002230003900214B1D
:102C0000FFF7C6F8002854D1249B002B00D191E691
:102C10000D9B5A1E9341249AD31A24938AE6C046E8
:102C2000FFFFEF7FFFFFEFFFFFF7FFFF01FCFFFF5D
:102C3000FB799F501344D33FB3C8608B288AC63FAB
:102C40000000F03F0000F83F61436F63A787D23F69
:102C500071A379094F930A400000E03F1655B5BBB8
:102C6000B16B0240EF39FAFE422EE63F00002C40E5
:102C70000000244000001840FF0300002D431CEB1F
:102C8000E2361A3F80842E410C9B0022013B0C93BC
:102C90002000164B2900FFF71AF80A000100030074
:102CA0000A910B9293E7002300240A930B940023CC
:102CB0000C93249A0C9B9A4214DDD31A013B249363
:102CC0008023269ADB001A430023002526920C93CA
:102CD00030E6802212069446229B1E00239B63440A
:102CE0001F000EE600232493EAE7C04600002440BC
:102CF000F0B54546DE464E465746E0B595B08B46A4
:102D0000904699461E9A1F9B0A9019001000209D1C
:102D1000FFF751F8002800D0B0E11E981F9901225A
:102D2000C74B5242FFF734F8002800D037E11E9815
:102D30001F990122C34B5242FFF738F8002800D0F8
:102D4000A7E01E981F990022BF4BFFF72FF800281D
:102D500000D088E01E981F990022BC4BFFF718F89E
:102D6000002800D07FE01E981F9900220023FFF763
:102D70000FF8002800D0FAE000230B938023229C58
:102D8000229ADB001C401A4200D102E1092D00D832
:102D90007EE106A98C462C00172200233021093C35
:102DA00062440133D154EF1A202B00D132E1A34207
:102DB000F7D10022A44B069207931E981F99FFF7A4
:102DC00023F80500FFF708F802000B001E981F9972
:102DD000FEF76BFF069A079BFEF797FF0890099195
:102DE000FFF736F80600FEF7F3FF02000B00089825
:102DF0000999FEF75AFF0022954B08900991FEF7BA
:102E0000D5FF002800D1D2E001363000FEF7E0FF08
:102E1000069A079BFEF7C2FF002801D00026013565
:102E2000AA46002F00D098E02800FEF7D5FF020048
:102E30000B001E981F99FEF738FF854B00220600F5
:102E40000F00FEF7A5FF0CAB9A46002845D10022E3
:102E5000300039007E4BFEF7A9FF00283DD1EB077B
:102E60003BD5013539E0229B42460493219B5946CC
:102E700003930A981E9B1F9C0295009301944B4656
:102E8000FFF70CFD15B0F0BCBB46B246A946A04604
:102E9000F0BD229B5B0767D403226E4B22990192FF
:102EA000039121990291009342464B4659460A9854
:102EB000FFF7AAFBE6E706AA944617232800634417
:102EC0000A2101341E19FEF78DFC303128003170C3
:102ED0000A21FEF787FC051E76D0202CEBD10323B8
:102EE000229A1340012B1DD1219B002B1AD00B9B42
:102EF000002B00D0BBE0229A0C33134200D0B6E086
:102F0000219BA34200D887E006AB9C4617223023C2
:102F1000624404E02199013413558C4259D0202C8D
:102F2000F8D12024229B01940393219B02935346C2
:102F3000B9E706AA944617230A21634430000134F6
:102F40001D19FEF777FC3031297030000A21013F4E
:102F5000FEF770FC092E46D90600202CE9D1554613
:102F60000CAB20249A46B8E704223B4B96E71E9A06
:102F70001F9B00200021FEF798FE01230B93802366
:102F8000229C229ADB001E901F911C401A4200D006
:102F9000FCE60022314B0627069207930DE7229BA1
:102FA0000393219B0293042301932D4B7BE7002283
:102FB00008980999264BFEF7EBFE002800D02FE772
:102FC000002E4FD101362BE70323229A1340012B09
:102FD00068D0202CA6D00B9B002B1FD02D2352464F
:102FE000135501349EE75546202CB9D030223B19A9
:102FF000002F4BD0172006A9013409180A55202CA0
:10300000AED09C42F6D10CAA92462E2251465C1CB0
:10301000CA5462E72024CCE6202C83D0229B5B0795
:1030200008D4229B1B0700D47CE72023524613556B
:10303000013477E72B2352461355013472E7C0461B
:10304000FFFFEFFFFFFFEF7F65CDCD4165CDCDC128
:103050000000E03F00490010F848001080842E4135
:1030600008490010F30700D4DAE60136D8E6219BC0
:10307000013B2193A34200D946E7AAE7229B039391
:10308000219B029303230193084B0CE72300BAE72B
:10309000074BEA009B185C681B682F000693079497
:1030A00000248AE6219B002B93D020E704490010DE
:1030B000B04A0010F0B5DE4657464E464546E0B5EC
:1030C0009FB01C00289B93460A93CC4ACC4B8A465F
:1030D00009901A60002900D14DE10023207899461B
:1030E000002800D14FE1C74B4D460893C64B0D93C6
:1030F0000AE02A006E1C5B46099D5146A847350030
:1031000001342078002872D02528F2D11023994666
:10311000083B9846043B00219C4602270134207856
:1031200026000300203BDBB2102B03D8089A9B003B
:10313000D3589F460300303B092B6ED900272A281D
:1031400000D18AE000230B932E2800D176E0030003
:10315000683BDBB2122B1BD8AC4C9B00E3589F465C
:10316000012301341943DAE739430134D7E76346D1
:1031700001341943D3E74B4601341943CFE74346A3
:1031800001341943CBE780235B0070781943013683
:1031900067280AD824281FD90300253BDBB2422B1D
:1031A0001AD80D9A9B00D3589F460300693BDBB2A7
:1031B0000F2B11D801249C40954AA44690461440F8
:1031C0000C9462464446224200D025E20A2B00D1EC
:1031D00001E1072B00D1D8E0099C2A005B4651464B
:1031E000A04770786F1C741C3D0000288CD1A94644
:1031F0002C00CB4503D801235B425B4499465B46D8
:103200004A4651460020099DA84720001FB0F0BC47
:10321000BB46B246A946A046F0BD0027BB00DF1959
:1032200001367F003F183078303F0300303B092BD8
:10323000F4D900230B932E2800D088E780237078E0
:10324000DB0019430300303B741C092B00D82CE130
:103250002A2800D138E1260079E70A9B80CB002F8D
:1032600003DB60780A93661C6CE7022260781143E6
:103270007F420A93661C65E7672800D1C8E14728AA
:1032800000D104E2452800D104E207200A9B049102
:103290000733834319000B9A039702920CC90998CC
:1032A000009201930A912A005B465146FFF7F6FA15
:1032B000741C050025E770786C2800D10DE280238E
:1032C0005B001943013663E780239B007078194344
:1032D00001365DE77078682800D1F9E18023013676
:1032E000194355E7462800D18FE107200A9B049136
:1032F0000733834319000B9A039702920CC909986C
:10330000009201930A912A005B465146FFF7F0FCB8
:10331000741C0500F5E62A00099C5B4651462520F1
:103320006F1CA0473D00741CEBE6890700D4DEE16A
:103330000A9B2A0098466B1C9946434601CB51468E
:103340009846099C5B46C0B2A047ED19012F00D8F2
:1033500093E24C46B1465646099F22005B46013433
:1033600031002020B847AC42F7D1B24643464E4622
:103370000A93741CC5E6274B2078099300239946CD
:10338000002800D0AFE6002433E70A9B1A0008CAE1
:103390009046002B00D1A7E0212008430EA98C46BF
:1033A0001F2262440F27AC46814615000C9C02E0A8
:1033B000202C0CD0130038001840010037310928A8
:1033C00000D80739013429551A090F2BF0D8654662
:1033D00048460C9494E00A9B1A0008CA12920B9A71
:1033E000002A7BD102241A786442002A1DD00134BD
:1033F00018199C461C00030010E0C046B5300010B0
:10340000CC38002010490010A04900105449001089
:1034100041900000052600109C4203D060780134E2
:103420000028F9D16346E01A0C908020C000844641
:10343000084080466046014204D00B980C9C8442B0
:1034400000D90C900220844608400A906046084249
:1034500000D189E1101E00D170E14246002A00D15E
:103460001BE10B9A5B1B9046A84444462A00B846D1
:1034700099465746B246099E09E05B463900551CFD
:10348000B0474B46585D002800D12CE12A009442F9
:10349000F3D156462500BA4647460A9B002B00D07A
:1034A0004CE1129B741C0A932BE6002293009B189C
:1034B0005B0001341A182078303A0300303B092BA6
:1034C000F4D926000B9242E60A9B023604CBD04385
:1034D000C01702400B9230780A9338E61A78002A17
:1034E000A3D00B98441E82E710230800802798433E
:1034F000113318430B00FF003B40394200D14DE728
:10350000082305930B9B2A000493102303930023A5
:1035100002930C9B0690019316AB009351465B46B9
:103520000998FFF7B9F843460500741C0A93E8E5CB
:10353000622800D1A6E1582800D1B1E180230A0019
:10354000DB001A409046194200D189E111239943CA
:103550008C46802362469B001A40100062461A4245
:1035600000D023E1802364465B001C401A4200D057
:1035700032E263465B0600D56BE163460A991B069F
:1035800000D4DBE208C91BB2DA179818504080B2A9
:103590000A91DA0F0C92002B00D118E280460EAA95
:1035A00091461F234B441395E14645461297B0467A
:1035B0001E0001E0202C0FD028000A21FEF73AF966
:1035C000013437193031397028000A21FEF732F9F9
:1035D0002F000500092FEDD84646CC46129F139DBB
:1035E000634606930B9B059704930A2303930C9B56
:1035F000029316AB2A000194009351465B4609984A
:10360000FFF74AF8741C05007BE5202319436CE69C
:1036100080231B01194338E6782800D07CE1802301
:103620000A00DB001A409146194200D1A5E20D23A1
:103630009943080003330C93802302009B001A4037
:103640009046184200D078E1802304005B001C40C3
:10365000184200D007E2430600D453E2FF210A9B40
:1036600004CB0A4090460A934346002B00D026E143
:10367000103398434B46002B00D120E100240B9BD4
:10368000069004930C9B059703930023B0E78023D7
:103690001B01194320231943F7E55B1B99460C9B3B
:1036A000099C98465B46B3465646BA461F002A0018
:1036B0003B003100A0474B460135585D0028F6D14C
:1036C00043460C933B005746B2465E469B46E4E6B3
:1036D000C023B078194302365AE5C0239B00B07866
:1036E0001943023654E55646BA464746D5E6012FF9
:1036F00000D832E26B1E9846B8442C00A9464546D5
:10370000B8465746B246099E22005B46013439004E
:103710002020B047AC42F7D10A9B564601CBBA46AF
:103720004746984622005B46099C5146C0B2A047D6
:103730004D464346ED190A93741CE2E40C9BA846DF
:103740009F4200D8ADE64446B04656467D19099FD3
:10375000ED1A22005B46013431002020B847AC420C
:10376000F7D1B24646469CE60C98874200D8F0E175
:10377000424698467919B9465746B246099E0C1AF0
:103780000C922A005B46013539002020B047A54243
:10379000F7D15646BA464F4643460C9A90467A1C95
:1037A0000C921A78101E00D057E67AE608220721FC
:1037B00091460A9B07338B4399444A460ACB0C0037
:1037C0000A921C43DA0F002C4ED0D8170400109038
:1037D0004C4011900E94109811990C005C400F947D
:1037E0000E9B0F9C1B1A8C410E930F940EA98846BA
:1037F0001F23002443441297B046270013951E0050
:103800000E9C0F9DE1460C9201E0202F10D020006D
:1038100029000A220023FEF74BF8013730322B0033
:10382000F2550D0022000400002BEED1092AECD83D
:103830004646CC460E940F950C9A3C00139D129F61
:10384000634606930B9B059704930A230292039306
:10385000CFE6FF230A9904C9134018000A9198E69D
:10386000102399438C4674E643460024002BE7D18D
:10387000002300240E930F94B8E743464D460A9365
:10388000741C3EE480230A00DB001A409146194272
:1038900000D140E10D2399430B3B08000C93CBE68C
:1038A00080230A00DB001A409146194200D162E1F0
:1038B0000D2320209943033308430C93BCE6612376
:1038C000810600D541230EA91F228C46DBB262443B
:1038D0000A3B13971495814645460C9FB0461293B8
:1038E000160008E03033DBB201343355BD420ED34D
:1038F000202C0CD0050039002800FDF79BFFCBB22F
:103900000929EFD9129A94466344DBB2ECE74646A4
:103910004846139F149DB2E66F2800D03CE10C236B
:103920000800984380230A00DB001A4091461942A0
:1039300000D02AE108230C937EE60A99FA3BFF3B6C
:103940000731994301339C468C4463464A680A9385
:103950000B6890469C461343191E06D14B46103106
:1039600000248843002B00D089E66121830600D51E
:1039700041210EAA91461F234B449946C9B20C9B84
:103980000A3913971495159645464E460024674606
:103990009846814612910CE03032D2B200230134B5
:1039A0003255AB4200D1BCE0202C00D1BCE0070076
:1039B0000D004246002338002900FDF779FFD2B2FE
:1039C000092AE9D9129B9C466244D2B2E6E74346F3
:1039D000002B00D004E6E2E50A9C08CCDA0F139233
:1039E000002B00D1A5E0D9175B184B4098460EAAD2
:1039F00091461F234B440C95A14645461296E0463E
:103A000006001C000A9701E0202E0FD028000A2192
:103A1000FDF710FF0136A7193031397028000A214F
:103A2000FDF708FF2F000500092FEDD8C4464C46CE
:103A300030000A9F0C9D129E634606930B9B2A0042
:103A400004930A230393139B0190029316AB0093F4
:103A500051465B4609980597FEF71EFE0A9405003D
:103A6000741CFFF74EFB0A9B10CB1493002C04D15F
:103A7000102398434B46002B2CD16123810600D59F
:103A800041230EA91F228C46DBB262440A3B1297E7
:103A90001395814645460C9FB0460A93160008E0F0
:103AA0003033DBB201357355BC420ED3202D0CD020
:103AB000040039002000FDF7BDFECBB20929EFD983
:103AC0000A9A94466344DBB2ECE748464646129FA6
:103AD000A846139D0B9B2A0004930C9B069003930E
:103AE000002302934346019316AB009351465B4675
:103AF00009980597FEF7D0FD149B05000A93741CE6
:103B0000FFF7FFFA03061FD50A9B02CB09040A0C34
:103B100090460A93A8E50C2399430A3B08000C93AE
:103B20008AE5B84500D83FE74846139F149D159E87
:103B3000A5E54346002B00D07EE758E708C9DA1711
:103B4000981850400A9124E50A9B04CB90460A93AA
:103B50008AE5010001310C9124E60A9F6C1C01CF1B
:103B60002A005B46099D5146C0B2A84725000A9726
:103B7000741CFFF7C6FA202319430C239943002332
:103B80009946103308000C9356E508238C460C9395
:103B90000D23604698434FE510230A009A4394464C
:103BA000692808D180230A00DB001A409046194298
:103BB00000D1CEE4CAE41C230800984380230A0005
:103BC000DB001A409146194202D10A230C9333E5D7
:103BD0000A230C93DCE7C0460EB4012230B584B052
:103BE00007AC08CC064D0100009428005242039413
:103BF000FFF760FA04B030BC08BC03B01847C046F9
:103C0000FD25001010B5094A0300146884B0002C8B
:103C100008D0012200910648524203A9A047012082
:103C200004B010BD00F054F90020F9E7CC380020B2
:103C30008D28001000BEFDE710B5FFF7FBFFC04662
:103C400070B5FDF7F7FC074D074EB54209D20024C9
:103C5000013E761BB60808CD984723000134B342D5
:103C6000F9D170BDFC47001000480010030010B5EA
:103C7000080011001B68984710BDC046F0B54646C5
:103C80004F46D646C0B5437D80460E001700002B38
:103C90004BD0002A32DD274B01259A464B1E0024CB
:103CA0000020994607E0335D0A2B2CD02B0001340D
:103CB0000135BB4213DA002CF5D133780A2BF5D14C
:103CC00043461B7D002BF1D14346504602211B6821
:103CD000984728002B0001340135BB42EBDB8742BB
:103CE00004DD4346391A1B6830189847F619013E1F
:103CF00033780D3B5A42534142461375E0BCBA46F5
:103D0000B146A846F0BD4B461B5D0D2BCED0A04260
:103D1000DADA4346211A1B68301898474346504662
:103D200002211B6898472800D4E70368110030007F
:103D30009847E3E7004B0010F0B5DE4657464E4685
:103D40004546E0B585B017001C0006000D00FDF7E4
:103D5000C1F90023314A12184B41802109068B42D8
:103D600002D301222E4B52422E4908008A4600F00F
:103D70001FFD01906B1C03D1300000F0BFFC05005B
:103D8000002C26D0284B9846284B1C68002C15D0B8
:103D9000002F21D1264F02E02469002C0ED0236889
:103DA000002BF9D03B68002B01D0A342F4D12000B6
:103DB0002A003100C0472469002CF0D1019B002B60
:103DC00028D1280005B0F0BCBB46B246A946A046A3
:103DD000F0BD184B9846D7E7154B994602ABDF1D4F
:103DE0000A239B4602E02469002CE7D02368002BBD
:103DF000F9D04B461B68002B01D0A342F3D12A0017
:103E000031002000C0475B460122390020003B7092
:103E1000C047E8E7504600F0A3FCD2E740420F005D
:103E2000FFFFFF7FDC3200207D3C0010C438002003
:103E3000C83800206D3C0010F0B5CE46474680B52E
:103E400083B06B460600DD1D2870FDF743F90023A3
:103E50001A4A12184B41802109068B4202D30122D3
:103E6000174B524217490800884600F0A1FC164B38
:103E700081461C68002C14D0144F02E02469002CE9
:103E80000FD02368002BF9D03B68002B01D0A34250
:103E9000F4D1200001222900FFF7F0FE2469002C54
:103EA000EFD14B46002B05D1300003B0C0BCB94662
:103EB000B046F0BD404600F053FCF5E740420F002D
:103EC000FFFFFF7FDC320020C4380020C83800200C
:103ED00070B5040000F012FC01230100050001226E
:103EE0002000FFF729FF084B1C68002C06D06368F0
:103EF000002B05D098472469002CF8D1280070BD0C
:103F00002469002CF3D1F9E7C4380020F0B5D64677
:103F100046464F46C0B5A4B002AF84220021381DEA
:103F2000FEF760FB8023984684235B010026002473
:103F30009A461E4D43463A003B803C2100940223A2
:103F40002800FDF7D3F953463A003B803C2100940A
:103F500002232800FDF7CAF943463B7050235B4219
:103F600033437B703A00009402233C212800FDF784
:103F7000BDF94023E946A2B002AA13703F3BF91CE9
:103F8000C95CD1540133852BF9D100943C21280020
:103F90000136FDF7ABF9CD46082ECBD1BD4622B098
:103FA000E0BCBA46B146A846F0BDC04604030020B6
:103FB0000023F0B5DE4657464E4645469A466B4BC3
:103FC000E0B59B466A4B8DB003910693694B049014
:103FD00003985E460592079300F090FB504500D889
:103FE000B9E00C22049908AC0B784D785344534344
:103FF0008022023393462270713ADFB2134063701D
:1040000000239046994622003C2100933000023361
:10401000FDF76CF95B46237010233F091F434B46A5
:1040200022003C216770300000930233FDF75EF9F7
:104030005B465022237043466D00EDB252422B4046
:10404000134363704B4622003C210093300002333F
:10405000FDF74CF95246039B05999B5C5A00D21818
:10406000069BD200D318002901D1079BD318002248
:1040700000259046B146402222701A783C21627099
:104080005A784846A2709A78E270DA7822711A79E2
:1040900062715A79A2719A79E271DA7922721A7A86
:1040A00062725A7AA2729A7ADB7AE2722373434678
:1040B000220000930D23FDF719F9012D41D00C21A9
:1040C000049A0F2613785578802253444B430233C9
:1040D000DFB2334063704346934622703031220092
:1040E000009348460223FDF701F95B462370102335
:1040F0003F091F43434622003C2167704846009316
:104100000223FDF7F3F85B466D000135EDB2237035
:104110002E40D03B334363704346220000933C2142
:1041200002234846FDF7E2F85246039B9A5C53008F
:104130009B18059ADB00002A14D00F4A01259B1812
:1041400099E701239C460398E2444E4600F0D6FAD4
:10415000504500D945E70DB0F0BCBB46B246A94674
:10416000A046F0BD054A01259B1884E70403002002
:1041700030030020001B00203C0300200C1B00200B
:1041800070B50026424D84B042492800FDF784F8FE
:104190000520FCF703FB0420FCF700FB03210520AE
:1041A000FCF7CEFA03210420FCF7CAFA0022012111
:1041B0000520FCF7DFFA002201210420FCF7DAFADF
:1041C000354B03AC2380220002233C2128000096BB
:1041D000FDF78CF88123DB012380220002233C21A0
:1041E00028000096FDF782F82C4B220023803C210A
:1041F000022328000096FDF779F88023220023800F
:104200003C21280000967E3BFDF770F8244B2200ED
:1042100023803C21022328000096FDF767F8214BFC
:10422000220023803C21022328000096FDF75EF83F
:104230001D4B220023803C21022328000096FDF71D
:1042400055F880235B42238022003C212800009601
:104250008233FDF74BF8154B220023803C210223CB
:1042600028000096FDF742F8114B220023803C21E4
:10427000022328000096FDF739F80E4B2200238018
:104280003C21022328000096FDF730F804B070BDF1
:1042900004030020A086010080AEFFFF80D3FFFF53
:1042A00080A1FFFF80C8FFFF8081FFFF80A4FFFF88
:1042B00080A6FFFF80AFFFFFD02109064A68802358
:1042C00010005B0210B518401A4219D14B689B03CD
:1042D00016D5404B1870404B1870404B1A78002A86
:1042E00053D03F493F4C0A782478944263D91870E0
:1042F00001323D4B0A701888FCF74EFE002010BDBD
:10430000D02109064A68802310009B0218401A42F7
:1043100018D14B68DB0315D5314B18702F4B187033
:104320002D4B1A78002A37D02A492E4C0A78247847
:10433000944238D9013218702C4B0A701888FCF757
:104340002BFEDBE7D022120653689B03D6D55368B9
:10435000DB03D3D5002321490B701F490B701D4986
:104360000B701F490B70526880231100DB0219404B
:104370001A42C3D11E4B1A78002A24D101321A7076
:104380001C4B1878FCF708FEB8E701321A701A4B7C
:104390001878FCF701FEB1E701321A70174B187854
:1043A000FCF7FAFDAAE71870154B08701888FCF79F
:1043B000F3FD0120A3E71870114B08701888FCF773
:1043C000EBFD02209BE719700D4B1888FCF7E4FD0C
:1043D000032094E7EB380020EA380020E83800207A
:1043E000E9380020D0320020D4320020D63200201C
:1043F000ED380020DA320020D8320020D9320020F7
:10440000D232002070B57D4D7D4B2D1A2D031D60DD
:1044100080237C4E5B05EC187B4BFC220021300096
:104420001C60FEF7DFF80F23784A1370F0231B019E
:10443000E35CAB2B5DD0E0231B01E35CAB2B5ED0D8
:10444000D0231B01E35CAB2B00D17BE0C0231B011D
:10445000E35CAB2B00D17CE0B0231B01E35CAB2B16
:1044600000D184E0A0231B01E35CAB2B00D177E0FB
:1044700090231B01E35CAB2B00D17FE080231B0169
:10448000E35CAB2B00D180E0E023DB00E35CAB2BF3
:1044900000D181E0C023DB00E35CAB2B00D182E0E4
:1044A000A023DB00E35CAB2B00D183E08023DB00A7
:1044B000E35CAB2B00D184E0C0239B00E35CAB2B1F
:1044C00000D18CE080239B00E35CAB2B00D17FE02C
:1044D00080235B00E35CAB2B00D187E02378AB2B20
:1044E00002D01023137070BD6378BA2BF9D100236A
:1044F0000AE0474BE35CBA2B9DD10F2304E0454B08
:10450000E35CBA2B9CD10E2301331370013B1902DB
:10451000414B34009C4665444919FC340B783268A1
:104520001B06134333604A7812041A4332608B78B7
:104530001B0213433360CA780431134308C6A642F2
:10454000ECD1D0E7354BE35CBA2B00D07EE70D23EE
:10455000DAE7334BE35CBA2B00D07DE70C23D3E7DB
:10456000304BE35CBA2B00D082E70A23CCE72E4B1A
:10457000E35CBA2B00D075E70B23C5E72B4BE35C5C
:10458000BA2B00D07AE70923BEE7294BE35CBA2BAC
:1045900000D079E70823B7E7264BE35CBA2B00D0BD
:1045A00078E70723B0E7244BE35CBA2B00D077E72A
:1045B0000623A9E7214BE35CBA2B00D076E705235D
:1045C000A2E71F4BE35CBA2B00D075E704239BE7FF
:1045D0001C4BE35CBA2B00D07AE7022394E71A4B1A
:1045E000E35CBA2B00D06DE703238DE70223FF3392
:1045F000E35CBA2B00D071E7012385E7FF010000DF
:10460000843700208436002080370020EC380020DA
:10461000010F0000010E000002000010010D00005B
:10462000010C0000010A0000010B0000010900005C
:10463000010800000107000001060000010500005C
:10464000010400000102000001030000F0B5C1B048
:10465000EFF3108672B6194C23780F2B23D81B0268
:104660009C46174D6A46174BFE2713806B4616492A
:1046700002336F4404C9100E1870100C5870100AE1
:104680009870DA700433BB42F4D1802228686946FE
:104690006044520000F074F886F3108823780133E8
:1046A000237041B0F0BD8021054D4901286800F01C
:1046B00077F800239C462370D4E7C046EC380020EE
:1046C00084370020ABBAFFFF8436002000487047D3
:1046D0008436002070B588420AD80600064D831B38
:1046E0009B009C5883000130C0B2EC508142F6D24E
:1046F000FFF7ACFF70BDC0468436002010B58307BD
:104700000AD00300032102E001330B4205D01A78DE
:10471000002AF9D1181A10BD030019680C4A0D4C73
:104720008A188A4322420FD15968094A04338A18E9
:104730008A43224208D15968054A04338A188A43B9
:104740002242F1D000E001331A78002AFBD1E1E7E0
:10475000FFFEFEFE80808080F8B5C04600000000AD
:1047600001B40248844601BC604700BF5D010020DF
:1047700001B40248844601BC604700BFC10200206A
:1047800001B40248844601BC604700BF41020020DA
:1047900001B40248844601BC604700BFC10200204A
:1047A00001B40248844601BC604700BFC10100203B
:1047B00001B40248844601BC604700BFC10000202C
:1047C0005D16001089160010D5170010D5250010B1
:1047D000691E001045250010FD160010A5160010DA
:1047E000C5160010D916001031090010E11600108E
:1047F000C10C00102516001085080010FD020010E5
:1048000050574D2025642020252E336900000000DC
:1048100050574D20256400002020252E33690000CC
:104820000A2A2A2A2050414E4943202A2A2A0A00CD
:104830000A000000486172647761726520616C61F2
:10484000726D20256420616C726561647920636CEF
:1048500061696D6564000000486172642061737372
:104860006572740052656C6561736500626F6F7488
:10487000325F77323571303830000000322E312E01
:10488000300000007069636F0000000070776D5F9A
:1048900067656265720000004A616E203236203220
:1048A0003032350006005250D3F075426448001093
:1048B00006005250E182887F6C480010060052507A
:1048C000ABB360537C48001006005250BBFF3CB6AF
:1048D0008448001006005250861C03028C480010C9
:1048E000060052505422A29D9848001005005250D4
:1048F000DE65F468447D0010666E692B00000000E0
:10490000666E69006E616E00666E692D00000000C3
:104910007E31001034310010343100107631001037
:1049200034310010343100103431001034310010B3
:104930003431001034310010343100106E31001069
:10494000343100106831001034310010343100105F
:1049500060310010D432001090310010C8320010C5
:1049600090310010B63200109031001090310010DC
:1049700090310010903100109031001090310010F3
:1049800090310010863100109031001090310010ED
:1049900090310010903100109031001086310010DD
:1049A00016330010D8310010D8310010D831001063
:1049B000D8310010D8310010D8310010D831001093
:1049C000D8310010D8310010D8310010D831001083
:1049D000D8310010D8310010D8310010D831001073
:1049E000D8310010D8310010D8310010D831001063
:1049F000D8310010D8310010D8310010D831001053
:104A0000D8310010D8310010D8310010D831001042
:104A1000D8310010D8310010D8310010D831001032
:104A200078320010E432001078320010D8310010D3
:104A3000D8310010D8310010D8310010D831001012
:104A4000D8310010D8310010D8310010D831001002
:104A5000D8310010D8310010D8310010D8310010F2
:104A6000D8310010D8310010D83100103035001086
:104A7000D8310010D8310010D8310010D8310010D2
:104A8000D8310010D8310010D8310010D8310010C2
:104A9000D8310010303500102A33001030350010A6
:104AA00078320010E432001078320010000000006C
:104AB000000000000000F03F000000000000244063
:104AC00000000000000059400000000000408F403E
:104AD000000000000088C34000000000006AF840A9
:104AE0000000000080842E4100000000D0126341CD
:104AF0000000000084D797410000000065CDCD4143
:044B00000D0A00009A
:104B0400A4480010B0480010BC480010C848001069
:0C4B1400D4480010E0480010EC480010ED
:104B2000F0B5C646150000B504001E000268EFF39C
:104B3000108172B61368002BFCD0BFF35F8F042383
:104B4000E356002B2DDB2268BFF35F8F002010603F
:104B500081F31088D0221206127852B290469A42FF
:104B600003D1002080BCB846F0BD00270BE02368CD
:104B7000BFF35F8F1F6081F310882800310000F0C1
:104B8000DBF80028EDD12268EFF3108172B61368CC
:104B9000002BFCD0BFF35F8F23797F2BE7D94346EF
:104BA00002E0D0231B061B6823712368BFF35F8FCD
:104BB00000221A6081F310880120D3E70268EFF326
:104BC000108172B61368002BFCD0BFF35F8FFF23F8
:104BD00003710368BFF35F8F00221A6081F31088AE
:104BE00040BF704710B5084C2378002B0AD18023B2
:104BF000064807495B051A68C25004338B42FAD154
:104C00000123237010BDC046EE38002098370010F5
:104C10000001001010B5014B984710BD99370020D6
:104C2000F0B58023D6464F464646421804000D0094
:104C3000C0B59B039A4227D8142718263888338892
:104C400013499847338882461249388898473388F1
:104C500081461149388898473388104980463888FA
:104C600098470600FFF7BEFFD047C84780222900BB
:104C7000D82320005202C047B047FFF7CBFFE0BC6B
:104C8000BA46B146A846F0BD00F04EF8D4E7C0469B
:104C900049460000455800005245000046430000C8
:104CA000F8B54E464546DE4657468023E0B515002A
:104CB0008218040089469B039A4226D81427182696
:104CC0003888338812499847338883461149388891
:104CD00098473388824610493888984733880F4967
:104CE0008046388898470600FFF77CFFD847D047B2
:104CF0002A0049462000C047B047FFF78BFFF0BCB1
:104D0000BB46B246A946A046F8BD00F00DF8D5E76F
:104D1000494600004558000052500000464300003C
:104D20007047C0460000000001B40248844601BC40
:104D3000604700BF2916001001B40248844601BC38
:104D4000604700BFD10F00100110000000000000FC
:104D50000000000000000000000000000000000053
:104D6000E832002000400440000000000000000085
:104D7000503300004C330000543300005233000025
:104D80004D5300004D4300005334000043340000F5
:104D9000FFFFFFFFFFFFFFFFFFFFFFFFFFFFFFFF23
:104DA000FFFFFFFFFFFFFFFFFF0FF3FDCDCEFECEA6
:104DB000CDFDF30FFFFCF3EFEEDDDDDDEEEFF3FCF9
:104DC000FF0F0301313000303101030FFFFCF0E031
:104DD000E1C2C2C2E1E0F0FCFFFF0F07070F1F0FA7
:104DE00007070FFFFFFFFFFEFCF8F0F8FCFEFFFFD8
:104DF000FFFF7F3F1F0F070F1F3F7FFFFFFFFFFEDC
:104E0000FCF8F0F8FCFEFFFFFF7F3F3F4703030382
:104E1000473F3F7FFFFCF8F8ECE4E0E4ECF8F8FCF7
:104E2000FFFF7F3F1F0F030F1F3F7FFFFFFFFCF8B8
:104E3000E8E4E0E4E8F8FCFFFFFFFFFF7F3F3F7F8F
:104E4000FFFFFFFFFFFFFFFFFEFCFCFEFFFFFFFF7A
:104E50000000000080C0C0800000000000000000D2
:104E60000103030100000000FFFFFF3FDFEFEFDF62
:104E70003FFFFFFFFFFFFFFCFBF7F7FBFCFFFFFF20
:104E8000000000C020101020C0000000000000033F
:104E90000408080403000000FF7F3F9FDFDF9F3707
:104EA00057E787FFFFFCF8F3F7F7F3F8FCFFFFFF86
:104EB000FFFFFF8F0773FBFB73078FFFFFFFFFFFF2
:104EC000F7F6C0C0F6F7FFFFFFFFFFFFFFFF00F19F
:104ED00083C7FFFFFFFFFFF3E1E1F0FFFFFFFFFFED
:104EE000FFFFFFFF00CC9933670FFFFFFFF9F0F0E2
:104EF000F8FFCF8786C0FFFFFF7F370FCFE7E1E7DF
:104F0000CF0F377FFFFFF6F8F9F3C3F3F9F8F6FF99
:104F1000FFFFFF03070F1F3F7FFFFFFFFFFFFFE0C4
:104F2000F0F8FCFEFFFFFFFFFFFFFF7F3F1F0F07B3
:104F300003FFFFFFFFFFFFFFFEFCF8F0E0FFFFFFB6
:104F4000FFFFFFEFE7E301E3E7EFFFFFFFFFFFFBFB
:104F5000F3E3C0E3F3FBFFFFFFFFFF0101FFFF01EE
:104F600001FFFFFFFFFFFFC8C8FFFFC8C8FFFFFF2B
:104F7000FFC783397D0101FD0101FDFFFFFFFFFF39
:104F8000FFC0C0FFC0C0FFFFFFFF2301DDDDDDDD8F
:104F9000193BFFFFFFFFF7E6EEEEEEEEE0F1FFFF5D
:104FA000FFFFFFFFFFFFFFFFFFFFFFFFFFFFFFC749
:104FB000C7C7C7C7C7C7C7FFFFFFFFF7F3F100F1B8
:104FC000F3F7FFFFFFFFFFBBB3A380A3B3BBFFFF5C
:104FD000FFFFFFEFE7E301E3E7EFFFFFFFFFFFFF67
:104FE000FFFFC0FFFFFFFFFFFFFFFFFFFFFF01FF0E
:104FF000FFFFFFFFFFFFFFFBF3E3C0E3F3FBFFFF58
:10500000FFFF7F7F7F7F7F0F1F3F7FFFFFFFFFFF40
:10501000FFFFFFF8FCFEFFFFFFFF7F3F1F0F7F7FBB
:105020007F7F7FFFFFFFFFFEFCF8FFFFFFFFFFFF1B
:10503000FFFFFFFFFFFFFFFFFFFFFFFFFFC0DFDFFF
:10504000DFDFDFDFDFDFDFFFFF7F3F1F0F7F7F7FE0
:105050000F1F3F7FFFFFFEFCF8FFFFFFF8FCFEFF86
:10506000FFFFFFFF7F3F1F3F7FFFFFFFFFFBF9F8C1
:10507000F8F8F8F8F8F8F9FBFFDF9F1F1F1F1F1F54
:105080001F1F9FDFFFFFFFFFFEFCF8FCFEFFFFFF7F
:10509000FFFFFFFFFFFFFFFFFFFFFFFFFFFFFFFF20
:1050A000FFFFFFFFFFFFFFFFFFFFFFFF8300008306
:1050B000FFFFFFFFFFFFFFFFFFCCCCFFFFFFFFFF66
:1050C000FFFFFFC3C3FFFFC3C3FFFFFFFFFFFFFFE0
:1050D000FFFFFFFFFFFFFFFFFFFFEF6F0F81E16F9C
:1050E0000F81E1EFFFFDE1E0FCFDE1E0FCFDFFFFF2
:1050F000FFFF8703330000333377FFFFFFFFFBF32E
:10510000F3C0C0F3F0F8FFFFFFFFC7C7C7FF7F3F43
:105110001F8FC7E3FFCFC7E3F1F8FCFEC7C7C7FF88
:10512000FFFFFF4703391DC1E3FFFFFFFFFFE0C0A3
:10513000CEDEC8E1E3C9DDFFFFFFFFFFD8C0E0FF1F
:10514000FFFFFFFFFFFFFFFFFFFFFFFFFFFFFFFF6F
:10515000FFFFFF0F0301F8FEFEFFFFFFFFFFFFFC55
:10516000F0E0C7DFDFFFFFFFFFFFFFFEFEF80103F8
:105170000FFFFFFFFFFFFFDFDFC7E0F0FCFFFFFFD8
:10518000FFFF67471F07071F4767FFFFFFFFF3F199
:10519000FCF0F0FCF1F3FFFFFFFF7F7F7F0F0F7F3D
:1051A0007F7FFFFFFFFFFEFEFEF0F0FEFEFEFFFF33
:1051B000FFFFFFFFFFFFFFFFFFFFFFFFFFFFFFFFFF
:1051C000470787FFFFFFFFFFFFFF7F7F7F7F7F7F17
:1051D0007F7FFFFFFFFFFEFEFEFEFEFEFEFEFFFFE7
:1051E000FFFFFFFFFFFFFFFFFFFFFFFFFFFFFFFFCF
:1051F000C7C7C7FFFFFFFFFFFFFFFFFFFF7F3F1F87
:105200008FC7E3F1FFE7E3F1F8FCFEFFFFFFFFFFCD
:10521000FF0701F9FC7C3C9CCCE10107FFF8E0E1D1
:10522000CCCECFCFCFE7E0F8FFFFFFF3F3F10000E4
:10523000FFFFFFFFFFFFFFCFCFCFC0C0CFCFCFFF1C
:10524000FFE3E1F8FCFC7C3C1C88C1E3FFCFC7C353
:10525000C1C8CCCECFCFCFCFFFF3F1F83C3C3C3C24
:105260003C1881C3FFF3E3C7CFCFCFCFCFC6E0F168
:10527000FF3F1F8FC7E3F1F80000FFFFFFFCFCFCBE
:10528000FCFCFCFCC0C0FCFCFFC0809C9C9C9C9C6B
:105290009C1C3C7CFFF3E3C7CFCFCFCFCFC7E0F060
:1052A000FF3F0F072331383C3C3C7FFFFFF0E0C657
:1052B000CFCFCFCFCFC6E0F0FFFCFCFCFCFCFC3C2A
:1052C0000CC0F0FCFFFFFFFFCFC3F0FCFFFFFFFFB0
:1052D000FFFF4301183C3C3C180143FFFFF0E0C6D0
:1052E000CFCFCFCFCFC6E0F0FFC381183C3C3C3CD2
:1052F0003C180103FFFFFFCFCFCFC7E3F1F8FCFF5E
:10530000FFFFFFFF8F8F8FFFFFFFFFFFFFFFFFFFFD
:10531000E3E3E3FFFFFFFFFFFFFFFFFF8F8F8FFF41
:10532000FFFFFFFFFFFFFFFF630383FFFFFFFFFFA1
:10533000FFFF3F1F0FC7E3F1F8FCFFFFFFFFFFFE7A
:10534000FCF8F1E3C7CFFFFFFFFF9F9F9F9F9F9F49
:105350009F9F9FFFFFFFF9F9F9F9F9F9F9F9F9FFB3
:10536000FFFFFCF8F1E3C70F1F3FFFFFFFFFCFC7B1
:10537000E3F1F8FCFEFFFFFFFFE3E1F8FC7C3C1CDF
:1053800088C1E3FFFFFFFFFFFFC8C8FFFFFFFFFF6C
:10539000FF0701F80C04E40404F80107FFF0E0E75C
:1053A000CCC8C9C8C8C9FCFEFFFFFF1F03E0E0036B
:1053B0001FFFFFFFFFC7C0F8F9F9F9F9F8C0C7FFF1
:1053C000FF00003C3C3C3C180143FFFFFFC0C0CF46
:1053D000CFCFCFCFC6E0F0FFFF0F03F1F8FCFCFC0E
:1053E000F8F1F3FFFFFCF0E3C7CFCFCFC7E3F3FF44
:1053F000FF0000FCFCFCFCF8F1030FFFFFC0C0CF76
:10540000CFCFCFC7E3F0FCFFFF00003C3C3C3C3C6F
:105410003CFCFCFFFFC0C0CFCFCFCFCFCFCFCFFF63
:10542000FF00003C3C3C3C3C3CFCFCFFFFC0C0FFA0
:10543000FFFFFFFFFFFFFFFFFF0F03F1F8FC3C3C06
:105440003C3839FFFFFCF0E3C7CFCFCFCFC0C0FF60
:10545000FF00003F3F3F3F3F3F0000FFFFC0C0FF56
:10546000FFFFFFFFFFC0C0FFFFFFFFFCFC0000FCD1
:10547000FCFFFFFFFFFFFFCFCFC0C0CFCFFFFFFF7D
:10548000FFFFFFFFFFFFFFFFFF0000FFFFF1E1C78E
:10549000CFCFCFCFC7E0F8FFFF00003F1F0FC7E31C
:1054A000F1F8FCFFFFC0C0FFFEFCF8F1E3C7CFFF3F
:1054B000FF0000FFFFFFFFFFFFFFFFFFFFC0C0CFA8
:1054C000CFCFCFCFCFCFCFFFFF0000E1871F1F8708
:1054D000E10000FFFFC0C0FFFFFEFEFFFFC0C0FFF6
:1054E000FF0000F1C70F3FFFFF0000FFFFC0C0FF3C
:1054F000FFFFFCF8E3C0C0FFFF0F03F1F8FCFCF86E
:10550000F1030FFFFFFCF0E3C7CFCFC7E3F0FCFFD1
:10551000FF00007C7C7C7C7C380183FFFFC0C0FEE8
:10552000FEFEFEFEFEFFFFFFFF0F03F1F8FCFCF89E
:10553000F1030FFFFFFCF0E3C7CFC9C1E3C0CCFF0D
:10554000FF00007C7C7C7C7C380183FFFFC0C0FEB8
:10555000FEFCF8F0E2C7CFFFFFC381183C3C3C3CA7
:105560003871F3FFFFF3E3C7CFCFCFCFC6E0F0FF33
:10557000FFFFFCFCFC0000FCFCFCFFFFFFFFFFFF4B
:10558000FFC0C0FFFFFFFFFFFF0000FFFFFFFFFFA7
:10559000FF0000FFFFF8E0C7CFCFCFCFC7E0F8FF95
:1055A000FFF8C0073FFFFF3F07C0F8FFFFFFFFFE08
:1055B000F0C1C1F0FEFFFFFFFF0000FFFF7F7FFF94
:1055C000FF0000FFFFC0C0E3F9FCFCF9E3C0C0FF2F
:1055D000FFFCF0E3CF1F1FCFE3F0FCFFFFCFC3F1D1
:1055E000FCFEFEFCF1C3CFFFFFFCF0C30F3F3F0FFB
:1055F000C3F0FCFFFFFFFFFFFFC0C0FFFFFFFFFF87
:10560000FFFCFCFCFC3C1CCCE0F0FCFFFFCFC3C16A
:10561000CCCECFCFCFCFCFFFFFFFFF0000FCFCFCF5
:10562000FCFFFFFFFFFFFFC0C0CFCFCFCFFFFFFFCB
:10563000FFF1E3C78F1F3F7FFFFFFFFFFFFFFFFF6C
:10564000FFFFFEFCF8F1E3E7FFFFFFFCFCFCFC00C2
:1056500000FFFFFFFFFFFFCFCFCFCFC0C0FFFFFF97
:10566000FF9F8FC7E3F1F8F1E3C78F9FFFFFFFFFB5
:10567000FFFFFFFFFFFFFFFFFFFFFFFFFFFFFFFF3A
:10568000FFFFFFFFFF3F3F3F3F3F3F3F3F3F3F3F6A
:10569000FFFFFFFFFFC181B1FFFFFFFFFFFFFFFF24
:1056A000FFFFFFFFFFFFFFFFFFFFBF9F9F9F9F9F2A
:1056B0009F1F3FFFFFE3C1CCCCCCCCCCCCC0C0FF04
:1056C000FF00003F9F9F9F9F1F3F7FFFFFC0C0CFF6
:1056D000CFCFCFCFC7E0F0FFFF7F3F1F9F9F9F9FA0
:1056E0009F3F7FFFFFF0E0C7CFCFCFCFCFE7F7FFE0
:1056F000FF7F3F1F9F9F9F1F3F0000FFFFF0E0C7FE
:10570000CFCFCFCFCFC0C0FFFF7F3F1F9F9F9F9FB7
:105710009F3F7FFFFFF0E0C4CCCCCCCCCCECFEFFB5
:10572000FF3F3F0301383C3CFCFFFFFFFFFFFFC092
:10573000C0FFFFFFFFFFFFFFFF7F3F1F9F9F9F9F58
:105740009F1F1FFFFFFC3831333333331980C0FFF5
:10575000FF00003F9F9F9F1F3F7FFFFFFFC0C0FFD5
:10576000FFFFFFFFC0C0FFFFFFFFFFFF9F1313FFFF
:10577000FFFFFFFFFFFFFFCFCFC0C0CFCFFFFFFF77
:10578000FFFFFFFFFFFF9F1313FFFFFFFFFFFF9FC1
:105790001F3F3F0080FFFFFFFFFF0000FF7F3F1F15
:1057A0009FFFFFFFFFFFC0C0FCF8F0E3C7CFFFFF84
:1057B000FFFFFFFFFC0000FFFFFFFFFFFFFFFFCF2A
:1057C000CFC0C0CFCFFFFFFFFF1F3F1F1F3F3F1FB7
:1057D0001F3F7FFFFFC0C0FFFFC0C0FFFFC0C0FF73
:1057E000FFFF1F1F9F9F9F9F1F3F7FFFFFFFC0C0A7
:1057F000FFFFFFFFFFC0C0FFFF7F3F1F9F9F9F9FD7
:105800001F3F7FFFFFF0E0C7CFCFCFCFC7E0F0FF54
:10581000FF1F1F9F9F9F9F9F1F3F7FFFFF0000F362
:10582000E7E7E7E7E3F0F8FFFF7F3F1F9F9F9F9FBA
:105830009F1F1FFFFFF8F0E3E7E7E7E7F30000FF34
:10584000FFFF1F1F3F9F9F9F9F1F3FFFFFFFC0C086
:10585000FFFFFFFFFFFFFFFFFF3F1F9F9F9F9F9FD8
:10586000BFFFFFFFFFEECCCCCCCCCCC0E1FFFFFFF5
:10587000FF9F9F01019F9F9FFFFFFFFFFFFFFFE033
:10588000C0CFCFCFCFFFFFFFFF1F1FFFFFFFFFFFE7
:10589000FF1F1FFFFFF0E0C7CFCFCFCFE7C0C0FF94
:1058A000FF9F1F7FFFFFFFFF7F1F9FFFFFFFFEF890
:1058B000E1C7C7E1F8FEFFFFFF1F1FFFFF1F1FFF2C
:1058C000FF1F1FFFFFF8E0C7E3F0F0E3C7E0F8FFBA
:1058D000FF9F1F3F7FFF7F3F1F9FFFFFFFCFC7E25D
:1058E000F0F8F0E2C7CFFFFFFFFF9F1F7FFFFF7FB2
:1058F0001F9FFFFFFFFFFF7E1881E1F8FEFFFFFF04
:10590000FF9F9F9F9F9F1F1F9FDFFFFFFFCFC7C36B
:10591000C9CCCECFCFCFFFFFFFFF7F3F0381F8FC85
:10592000FCFCFFFFFFFFFFFEE0C08F9F9F9FFFFF7C
:10593000FFFFFFFFFF0000FFFFFFFFFFFFFFFFFF75
:10594000FFC0C0FFFFFFFFFFFFFFFCFCFCF881036F
:105950003F7FFFFFFFFF9F9F9F8FC0E0FEFFFFFF86
:10596000FFEFE7F3FBF3E7EFE7F3FBFFFFFFFFFFDB
:10597000FFFFFFFFFFFFFFFFFFFF7F3F9FCFCF9F97
:105980003F7FFFFFFFF0F0F3F3F3F3F3F3F0F0FFEB
:10599000FF0F03F1F8FCFCFCF8E1E3FFFFFEF83138
:1059A000230707E7E3F1F9FFFF1F1FF3F3FFFFF3FF
:1059B000F31F1FFFFFF0E0C7CFCFCFCFE7C0C0FF7F
:1059C000FF7F3F1F9F9793999D3F7FFFFFF0E0C4AC
:1059D000CCCCCCCCCCECFCFFFFFFBF979399999338
:1059E000971F3FFFFFE3C1CCCCCCCCCCCCC0C0FFD9
:1059F000FFFFBF93939F9F93931F3FFFFFE3C1CC94
:105A0000CCCCCCCCCCC0C0FFFFFFBF9F9D9993975F
:105A10009F1F3FFFFFE3C1CCCCCCCCCCCCC0C0FFA0
:105A2000FFFFBF9F9B95959B9F1F3FFFFFE3C1CC4F
:105A3000CCCCCCCCCCC0C0FFFF7F3F1F9F9F9F9F93
:105A40001F3F7FFFFFF0E0474F0F0FCFC7E7F7FF84
:105A5000FF7F3F1793999993973F7FFFFFF0E0CC2B
:105A6000CCCCCCCCCCECFCFFFF7F3F13939F9F931F
:105A7000933F7FFFFFF0E0CCCCCCCCCCCCECFCFF58
:105A8000FF7F3F1F9D9993979F3F7FFFFFF0E0CCE3
:105A9000CCCCCCCCCCECFCFFFFFFFFF3931F13F37B
:105AA000FFFFFFFFFFFFFFCFCFC0C0CFCFFFFFFF44
:105AB000FFFFFFF7931919F3F7FFFFFFFFFFFFCF7A
:105AC000CFC0C0CFCFFFFFFFFFFFFFFF9D1913F730
